:1000000026C1000054C1000052C1000050C10000D0
:100010004EC100004CC100004AC1000048C10000B0
:1000200046C1000044C1000042C1000040C10000C0
:100030003EC100003CC100003AC1000038C10000D0
:1000400036C1000034C1000032C1000030C10000E0
:100050002EC100002CC100002AC1000031C40000E4
:1000600026C1000024C1000022C1000020C1000000
:100070001EC100001CC100001AC1000018C1000010
:1000800016C1000014C1000012C1000010C1000020
:100090000EC100000CC100000AC100005BC40000DA
:1000A00006C1000004C1000002C1000000C1000040
:1000B000FEC00000FCC00000FAC00000F8C0000054
:1000C000F6C00000F4C00000F2C00000F0C0000064
:1000D000EEC00000ECC00000EAC00000E8C0000074
:1000E000E6C00000A601A90198019C01A201E0015F
:1000F000AD01B101B701BB01BF01C501C901CD010E
:10010000E001D301D701DB0188038D0392039C0337
:10011000A6031F04B003B803C003CA03D403DE035D
:10012000ED03F7031F0401040B0415040000210074
:10013000240027002A002D003000330001010000B8
:10014000040107010A0100002200250028002B00FD
:100150002E003100340002010000050108010B01EE
:1001600000000A0B02090C0D0E0807030401000031
:10017000000000000000000000000000000000007F
:10018000000000000000000000000000121110003C
:10019000000000000000000000000000000000005F
:1001A00000000000000000002000230026002900BD
:1001B0002C002F003200000100000301060109019C
:1001C00005050505070508080808020202020A0AD3
:1001D00008080404040401010101010101010303F1
:1001E000030303030303040707070C0C0C0C0C0C9C
:1001F0000C0C0202020206060606060606060B0B99
:100200000B0B0B0B0B0B01021020200808102040D9
:1002100010204080020102010804020101020408CA
:100220001020408080402010080402018004020158
:1002300080402010080402010804020101020408A1
:10024000102040800102040810204080090C112475
:100250001FBECFEFD1E2DEBFCDBF00E00CBF12E08A
:10026000A0E0B2E0ECE7FCE100E00BBF02C00790C9
:100270000D92AC37B107D9F723E0ACE7B2E001C08B
:100280001D92A138B207E1F711E0C7E2D1E000E02A
:1002900006C021970109802FFE010E94A00CC632E2
:1002A000D10780E00807A9F770D70C943C0EA8CEC0
:1002B0008091490390E020914A03821B910908959F
:1002C000CF92DF92EF92FF920F931F93CF93DF9322
:1002D0006C017A018B01C0E0D0E0CE15DF0589F01A
:1002E000D8016D918D01D601ED91FC910190F081C5
:1002F000E02DC6011995892B11F47E0102C02196CB
:10030000ECCFC701DF91CF911F910F91FF90EF903C
:10031000DF90CF90089590E0FC013197E231F10534
:1003200008F04EC08827EE58FF4F8F4F0C94A00C5A
:10033000809180008F7703C0809180008F7D8093B3
:100340008000089580918000877FF9CF84B58F77F2
:1003500002C084B58F7D84BD08958091B0008F77F1
:1003600003C08091B0008F7D8093B000089580918C
:1003700090008F7707C0809190008F7D03C080919F
:100380009000877F8093900008958091A0008F77E0
:1003900007C08091A0008F7D03C08091A000877F5F
:1003A0008093A0000895809120018F7707C08091ED
:1003B00020018F7D03C080912001877F80932001E1
:1003C0000895CF93DF93282F30E0F901E05AFE4FD4
:1003D0008491F901EA5FFD4FD491F901E054FE4F99
:1003E000C491CC2389F0811196DFEC2FF0E0EE0F61
:1003F000FF1FEA55FE4FA591B491EC91ED2381E0EA
:1004000090E021F480E002C080E090E0DF91CF91A5
:1004100008953FB7F8948091C4029091C502A091CD
:10042000C602B091C70226B5A89B05C02F3F19F0A0
:100430000196A11DB11D3FBFBA2FA92F982F882764
:10044000820F911DA11DB11DBC01CD0142E0660FBF
:10045000771F881F991F4A95D1F7089585ED8093DE
:10046000BC008091BC0084FDFCCF1092460308952F
:1004700040919E02262F30E0240F311D213231059C
:10048000DCF4209146032430C9F4FC0180E090E0C4
:10049000861758F430919E022191DC01A458BD4F7B
:1004A000A30FB11D2C930196F3CF80919E02680F8C
:1004B00060939E0280E0089581E0089582E00895AF
:1004C0000895E0914A0380914903E81730F4F0E081
:1004D000E853FD4F808190E008958FEF9FEF0895DE
:1004E00090914A0380914903981750F4E92FF0E066
:1004F000E853FD4F208130E09F5F90934A0302C094
:100500002FEF3FEFC9010895CF92DF92EF92FF9254
:100510000F931F93CF93DF937C01262F972F8A0190
:1005200080912D03882391F0C62FD72F6E01C40E22
:10053000D51ECC15DD0569F06991D701ED91FC91CF
:100540000190F081E02DC7011995F3CF642F822F20
:100550008FDFC801DF91CF911F910F91FF90EF9036
:10056000DF90CF900895CF93DF931F92CDB7DEB782
:10057000698320912D032223D1F02091470320325B
:1005800040F021E030E0FC013383228380E090E002
:1005900014C080914803E82FF0E0E45FFC4F99819C
:1005A00090838F5F809348038093470304C061E08A
:1005B000CE0101965DDF81E090E00F90DF91CF9159
:1005C00008950E942A0E1F93CF93DF93282F30E0C7
:1005D000F901E05AFE4F8491F901EA5FFD4FD49191
:1005E000F901E054FE4FC491CC23C1F0162F8111C4
:1005F00092DEEC2FF0E0EE0FFF1FEA5BFE4FA591BD
:10060000B4918FB7F894111105C09C91ED2FE0952E
:10061000E92302C0EC91ED2BEC938FBFDF91CF91DA
:100620001F910895CF93DF93EC0160E08E81CBDFC3
:1006300061E08E81C8DF60E08E81C5DF8BE891E0EC
:100640000197F1F7DF91CF910895CF93DF9390E079
:10065000FC01EA5FFD4F2491FC01E054FE4F8491C0
:10066000882361F190E0880F991FFC01E45DFE4F43
:10067000C591D491FC01EA5BFE4FA591B491611143
:1006800009C09FB7F8948881209582238883EC91D4
:100690002E230BC0623061F49FB7F8943881822F0B
:1006A000809583238883EC912E2B2C939FBF06C0CB
:1006B0008FB7F894E8812E2B28838FBFDF91CF91DD
:1006C00008951F93CF93DF93182FEB0161E0BDDFF7
:1006D000209711F460E004C0CF3FD10531F461E010
:1006E000812FDF91CF911F916ECFE12FF0E0E05A83
:1006F000FE4FE4914E2F50E0FA013197E231F105BF
:1007000008F09DC08827EC57FF4F8F4F0C94A00C2A
:1007100084B5806884BDC7BD97C084B5806284BD40
:10072000C8BD92C080918000806880938000D09383
:100730008900C093880088C0809180008062809387
:100740008000D0938B00C0938A007EC0809180008F
:10075000886080938000D0938D00C0938C0074C01B
:100760008091B00080688093B000C093B3006CC0EB
:100770008091B00080628093B000C093B40064C0E8
:1007800080919000806880939000D0939900C093EE
:1007900098005AC080919000806280939000D0931E
:1007A0009B00C0939A0050C0809190008860809315
:1007B0009000D0939D00C0939C0046C08091A00003
:1007C00080688093A0008091A0008F7B8093A00020
:1007D000D093A900C093A80037C08091A000806288
:1007E0008093A000D093AB00C093AA002DC080914D
:1007F000A00088608093A000D093AD00C093AC00AF
:1008000023C080912001806880932001D09329012A
:10081000C093280119C0809120018062809320013B
:10082000D0932B01C0932A010FC0809120018860D2
:1008300080932001D0932D01C0932C0105C0C038B6
:10084000D1050CF04CCF46CFDF91CF911F91089589
:100850008F929F92AF92BF92CF92DF92EF92FF92D0
:100860006B017C01D6DD4B015C01C114D104E104B4
:10087000F104E9F0CEDDDC01CB0188199909AA0960
:10088000BB09883E9340A105B10578F321E0C21A67
:10089000D108E108F10888EE880E83E0981EA11CBB
:1008A000B11CC114D104E104F10421F7DECFFF90A3
:1008B000EF90DF90CF90BF90AF909F908F90089572
:1008C0001F920F920FB60F9211242F933F938F9385
:1008D0009F93AF93BF938091400390914103A09168
:1008E0004203B09143033091C30223E0230F2D371D
:1008F00020F40196A11DB11D05C026E8230F029624
:10090000A11DB11D2093C302809340039093410326
:10091000A0934203B09343038091C4029091C50217
:10092000A091C602B091C7020196A11DB11D80938E
:10093000C4029093C502A093C602B093C702BF91B0
:10094000AF919F918F913F912F910F900FBE0F907C
:100950001F9018951F920F920FB60F9211240BB68D
:100960000F922F933F934F935F936F937F938F9348
:100970009F93AF93BF93EF93FF938091B900887FCC
:10098000803609F49CC068F5883209F45BC090F4A5
:10099000803109F454C038F4882309F4F6C0883053
:1009A00009F44DC0F5C0883109F44CC0803209F417
:1009B0005DC0EEC0803409F468C048F4803309F4A7
:1009C00055C0883309F0E4C080930B03D8C080354C
:1009D00009F44FC0883509F45DC0883409F0D8C0E7
:1009E000D6C0883909F4C7C0A8F4883709F467C0AD
:1009F00038F4883609F463C0803709F460C0C8C091
:100A0000883809F4B8C0803909F45FC0803809F02B
:100A1000BFC05BC0803B09F486C038F4803A09F45B
:100A200066C0883A09F47FC0B3C0803C09F4A7C00F
:100A3000883C09F4A4C0883B09F48AC0A9C080910D
:100A4000E80210C090910A0380910903981770F58D
:100A5000E0910A0381E08E0F80930A03F0E0E751F2
:100A6000FD4F80818093BB0085EC86C080930B0393
:100A70008EC0E0910A0381E08E0F80930A0380917B
:100A8000BB00F0E0E751FD4F808390910A03809115
:100A900009036EC0E0910A0381E08E0F80930A0380
:100AA0008091BB00F0E0E751FD4F808380914503CA
:100AB00081116DC081E08093440384EA61C083E0CA
:100AC000809346031092C202CFCF8091C20280323F
:100AD00008F051C0E091C20281E08E0F8093C20203
:100AE0008091BB00F0E0EE55FD4F8083BDCF85ECDB
:100AF0008093BC00109246038091C202803230F491
:100B0000E091C202F0E0EE55FD4F10826091C2020A
:100B100070E0E091A002F091A10282EA92E01995C2
:100B20001092C20235C084E08093460310929F0267
:100B300010929E02E0919C02F0919D021995809185
:100B40009E02811105C081E080939E0210927C027A
:100B5000E0919F0281E08E0F80939F02F0E0E458C5
:100B6000FD4F80818093BB0090919F0280919E02F7
:100B7000981708F479CF85E88093BC0009C085EC0C
:100B80008093BC001092460303C010920B0366DCF6
:100B9000FF91EF91BF91AF919F918F917F916F9155
:100BA0005F914F913F912F910F900BBE0F900FBE11
:100BB0000F901F901895CF92DF92EF92FF920F93B4
:100BC0001F93CF93DF937C016C0187E0C80ED11C8B
:100BD000C0E0D0E0062F10E0B8010C2E02C07595E1
:100BE00067950A94E2F76170F60181916F01EBDC81
:100BF0002196C430D10581F7C701DF91CF911F91B4
:100C00000F91FF90EF90DF90CF900CCDCF92DF92BD
:100C1000EF92FF920F931F93CF93DF93EC01F62E89
:100C2000642F8C81D0DC8D818F3F11F060E0CBDCB4
:100C30008F850F2D10E084FF23C06E0187E0C80E62
:100C4000D11CE12CF12CB8010E2C02C075956795D2
:100C50000A94E2F76170F60181916F01B4DCFFEF55
:100C6000EF1AFF0A88E0E816F10469F7CE01DF9178
:100C7000CF911F910F91FF90EF90DF90CF90D2CC4A
:100C8000B80184E0759567958A95E1F7CE0193DF09
:100C90006F2DCE01DF91CF911F910F91FF90EF90BB
:100CA000DF90CF9088CF41E0B1DF81E090E0089500
:100CB000CF92DF92EF92FF926C018AE0C816D104C6
:100CC00020F460E389E693E0EEDF0D2C000CEE08E3
:100CD000FF08F7FE14C0E0916903F0916A030190E8
:100CE000F081E02D6DE289E693E01995662777277C
:100CF000CB016C197D098E099F094AE003C04AE0C7
:100D0000C701B601FF90EF90DF90CF90EAC140E0BD
:100D10007DCF61E0FCDF8BE39FE10197F1F7089560
:100D20008F929F92AF92BF92CF92DF92EF92FF92FB
:100D3000CF93DF93A0915E03882311F03A2F01C077
:100D400030E080915F0390E0880F991F8A559E4F95
:100D5000C0906403D0906503E0906603F090670351
:100D600040E050E0BA01FC01C591D49128812A23CA
:100D700023130FC04A015B012FEF821A920AA20AC5
:100D8000B20A4C155D056E057F0538F4B501A40166
:100D9000EACF342F252FCB0104C030E020E080E0E3
:100DA00090E0632F722FDF91CF91FF90EF90DF9053
:100DB000CF90BF90AF909F908F900895009761F073
:100DC000FC0101900020E9F73197AF01481B590B56
:100DD000BC0189E693E074CA80E090E00895EF9248
:100DE000FF920F931F93CF93DF93EC01423018F0E3
:100DF0008F8588608F874B8B1C8A80E48D8B6E8BF0
:100E000070E0605C7F4F6F8B61E08C811EDC8D81B8
:100E10008F3F11F061E019DC61E08E8116DC7E010C
:100E200087E0E80EF11C00E010E08F8584FD03C030
:100E300084E090E002C088E090E00817190744F4CD
:100E400061E0F70181917F0100DC0F5F1F4FEDCF63
:100E50008BE39DE00197F1F760E08C81B4DB60E00B
:100E60008E81B1DB8D818F3F11F060E0ACDB6F854F
:100E700064FD19C063E0CE019EDE0BE416E4C801F8
:100E80000197F1F763E0CE0196DEC8010197F1F713
:100E900063E0CE0190DE83E592E00197F1F762E036
:100EA000CE0189DE13C06062CE0131DF8BE496E4AF
:100EB0000197F1F76F856062CE0129DF83E592E04B
:100EC0000197F1F76F856062CE0121DF6F85606267
:100ED000CE011DDF84E0888B6CE0CE0118DFCE01EF
:100EE00018DF82E0898B66E0CE01DF91CF911F9100
:100EF0000F91FF90EF900BCFCF92DF92EF92FF9286
:100F00000F931F93CF93DF93CDB7DEB7C054D1407B
:100F10000FB6F894DEBF0FBECDBF2FB7F894809107
:100F2000400390914103A0914203B09143032FBF2E
:100F3000409160035091610360916203709163037B
:100F40008C019D01041B150B260B370BB901A80161
:100F5000403D57406105710518F480916803B1C0A8
:100F60008093600390936103A0936203B093630343
:100F700010925B0310925A03109259031092580377
:100F80001092570361E080915C031DDB6AEF70E013
:100F900080E090E05DDC61E080915C0356DB60E026
:100FA00080915C0310DB64E170E080E090E050DC55
:100FB000F89461E080915C0306DB8BE990E0019797
:100FC000F1F762E080915C0340DB83E290E00197FF
:100FD000F1F780E0A5DE672B682B692B21F41092D6
:100FE000680378943BC081E09BDE672B682B692BFC
:100FF000B1F38E010F5F1F4F6E012FEBC21A2EEF60
:10100000D20A780180E08CDEF701608371838283ED
:10101000938381E085DEF7016483758386839783FC
:10102000F8E0EF0EF11CEC14FD0461F7789420E079
:1010300030E0F8014081518162817381C480D580A4
:10104000E680F780411551056105710529F0C1144D
:10105000D104E104F10421F41092680380E031C06E
:10106000F90183E0F595E7958A95E1F7E95AFC4F98
:101070008081880F4C155D056E057F0508F4816041
:1010800080832F5F3F4F085F1F4F2832310589F65D
:1010900020915B0330E0409157038091580390E02A
:1010A000840F911D40915903840F911D40915A0363
:1010B000840F911D99272817390771F681E08093D5
:1010C0006803C05CDE4F0FB6F894DEBF0FBECDBF25
:1010D000DF91CF911F910F91FF90EF90DF90CF9014
:1010E00008958F929F92AF92BF920F931F93CF93C9
:1010F000DF93CDB7DEB7A1970FB6F894DEBF0FBE72
:10110000CDBF19A2423008F44AE08E010F5D1F4F97
:10111000842E912CA12CB12CA5019401EFD3E62FA4
:10112000B901CA0101501109EA3014F4E05D01C0AF
:10113000E95CD801EC93232B242B252B69F7C801FC
:101140003DDEA1960FB6F894DEBF0FBECDBFDF9196
:10115000CF911F910F91BF90AF909F908F90089566
:101160002DCE643008F063E090917C03691710F095
:101170006FEF690FE62FF0E0E759FC4F9489682F75
:10118000690F606889E693E0C2CD789484B5826087
:1011900084BD84B5816084BD85B5826085BD85B51B
:1011A000816085BD80916E00816080936E00109299
:1011B0008100809181008260809381008091810014
:1011C00081608093810080918000816080938000A5
:1011D0008091B10084608093B1008091B000816003
:1011E0008093B00080919100826080939100809103
:1011F0009100816080939100809190008160809344
:1012000090008091A10082608093A1008091A10054
:1012100081608093A1008091A00081608093A000F4
:101220008091210182608093210180912101816060
:101230008093210180912001816080932001809121
:101240007A00846080937A0080917A008260809333
:101250007A0080917A00816080937A0080917A0090
:10126000806880937A001092C10044E064E189E6CE
:1012700093E0B5DD62E080915C03E7D980E398EF0D
:10128000AFEFBFEF8093600390936103A09362037D
:10129000B093630361E08DE0D8D961E08EE1D5D9E8
:1012A00061E08CE0D2D960E08EE3CFD960E08FE3DB
:1012B000CCD960E080E4C9D960E081E4C6D96FEFA1
:1012C00070E081E1FED999EEE92E92E0F92E28EC4A
:1012D000C22E22E0D22E30E0A32E30E0B32E08E65C
:1012E00042E0942ECFEFD5EE15EC86E0882E60E03C
:1012F00085E037DF88E192E033DF61E083E031DFD2
:1013000083E292E02DDF81E080932D0300932C0394
:10131000109248031092470360E08BE493E023D9D6
:1013200090914703913208F046C0809146038111A5
:10133000FCCF9092460321E020934503C0930B031A
:1013400010920A0390930903ACE0B3E0E9EEF2E0F7
:101350002E2F2E19291718F42D912193F9CF1092C1
:10136000E8029091E802906D9093E8029091440316
:10137000913069F4109244039091E8029093BB007D
:101380009091BC0093FDF8CF1093BC0002C0D093A5
:10139000BC00909146039230E1F390910B039F3F84
:1013A00079F080910B03803241F080910B03803300
:1013B00031F084E005C081E003C082E001C083E039
:1013C000109248031092470310922D03882319F0BE
:1013D00010922E030EC281E080932E03809146036B
:1013E0008111FCCF81E08093460380934503C09335
:1013F0000B0310920A03809209038093E802809104
:10140000E802806D8093E80280914403813069F4A2
:10141000109244038091E8028093BB008091BC004D
:1014200083FDF8CF1093BC0002C0D093BC00809124
:1014300046038130E1F380910A03873018F48091EC
:101440000A0301C087E0A9EEB2E0E8ECF2E09E2FCB
:101450009C19981718F49D919193F9CF10924A0313
:1014600080934903873008F4C4C18BE493E038D8F3
:10147000782E8695869586958E70982F990F990F60
:10148000890F972D9F70890F80932F038BE493E032
:1014900027D8982F92959F708F702AE0929F800D89
:1014A0001124809330038BE493E01AD8982F86950B
:1014B000869586958670282F220F220F820F9F70A7
:1014C000980F909331038BE493E00AD8282F22954C
:1014D0002F70982F9F708AE0289F900D1124909371
:1014E00032038BE493E00E947002282F22952F7024
:1014F000982F9F708AE0289F900D112490933303BA
:101500008BE493E00E947002282F22952F70982F71
:101510009F708AE0289F900D1124909334038BE4F0
:1015200093E00E947002982F9F70925E82958F7058
:101530002AE0829F900D11249093350377FC59C1C6
:1015400062E086E00EDE8091310390E0B1DB89E756
:1015500092E006DE8091300390E0AADB89E792E01A
:10156000FFDD80912F0390E0A3DB63E086E0F9DDEF
:101570008091330390E09CDB89E792E0F1DD80917C
:10158000340390E095DB89E792E0EADD6091350372
:1015900070E080E090E04AE0A4DD68EE73E080E077
:1015A00090E056D989E693E0B4DBA6DC882399F174
:1015B00080915D038B3029F070F18551823040F0CD
:1015C0002AC06091590370E080E090E052D227C0B9
:1015D00030905903632D6F7770E080E090E04BD23C
:1015E00020E030E040E853E4D2D22B013C0160918E
:1015F0005A0370E080E090E03ED29B01AC01C30151
:10160000B201A7D12DEC3CEC4CEC5DE3C0D237FE2F
:1016100006C0905804C060E070E080EC9FE7FDD108
:10162000362E60933F0368DC882369F180915D0367
:101630008B3011F140F18551823028F560915703CC
:1016400070E080E090E015D220E030E040E853E424
:101650009ED22B013C016091580370E080E090E045
:101660000AD29B01AC01C301B20173D12DEC3CEC59
:101670004CEC5DE38CD20BC06091570370E080E0CE
:1016800090E0F7D104C060E070E080EC9FE7C5D146
:1016900060933E03632D80E090E0E0D260913E03D2
:1016A00081E090E0DBD210923E0310923F038EE384
:1016B0000E94E1013C0190933D0380933C038FE342
:1016C0000E94E10190933B0380933A0380E40E94DF
:1016D000E101909339038093380381E40E94E10192
:1016E00090933703809336036A94672869F462E025
:1016F00080E037DD82E692E033DD60913F0370E009
:1017000080E090E04AE0EDDC80913A0390913B0369
:10171000019769F462E080E024DD8AE692E020DD52
:1017200060913E0370E080E090E04AE0DADC809176
:10173000380390913903019719F46FEF70E002C0FC
:1017400060E070E08EE10E94610380913603909129
:101750003703019741F460E070E08EE10E9461037D
:1017600089E693E0D6DA80913F0390E08A319105D3
:101770001CF46FEF70E019C08A31910519F466EA24
:1017800070E013C08B31910519F464E670E00DC070
:101790008C31910519F469E370E007C04D9719F495
:1017A00069E170E002C060E070E08DE00E946103DA
:1017B00080913E0390E0823691051CF46FEF70E05B
:1017C0000EC08236910519F466EA70E008C08336CF
:1017D000910519F464E670E002C060E070E08CE00E
:1017E0000E946103A114B10409F481CD0E9400009C
:1017F00079CD80912E03882319F083E392E002C013
:101800008FE492E0ADDC68E273E280E090E020D803
:10181000C4CEEBE4F3E01382128288EE93E0A0E002
:10182000B0E084839583A683B78384E092E09183BC
:10183000808310924A031092490310924803109239
:1018400047031092460381E08093450310924403BE
:1018500061E084E10E94E30261E085E10E94E3022D
:10186000E9EBF0E080818E7F808380818D7F8083B3
:1018700088E48093B80085E48093BC00E9E6F3E057
:101880001382128284E192E09183808386E38483D1
:1018900087E3858388E3868389E387838AE3808778
:1018A0008BE381878CE382871386148615861686E0
:1018B000178641E060E1CF0192DAA7E5B3E08DE160
:1018C00015968C9315978BE016968C931697E3E2FA
:1018D000F2E0E4911796EC931797EDEDF1E0E491C7
:1018E0001896EC93189740E85EE360E070E01D9670
:1018F0004D935D936D937C9350970895A1E21A2EBA
:10190000AA1BBB1BFD010DC0AA1FBB1FEE1FFF1FA3
:10191000A217B307E407F50720F0A21BB30BE40BF3
:10192000F50B661F771F881F991F1A9469F760953A
:101930007095809590959B01AC01BD01CF010895F4
:10194000EE0FFF1F881F8BBF0790F691E02D1994B3
:101950005058BB27AA270ED0E0C0D1D030F0D6D047
:1019600020F031F49F3F11F41EF4C6C00EF4E09550
:10197000E7FBBCC0E92FE2D080F3BA176207730718
:101980008407950718F071F49EF5FAC00EF4E095FF
:101990000B2EBA2FA02D0B01B90190010C01CA0129
:1019A000A0011124FF27591B99F0593F50F4503ED4
:1019B00068F11A16F040A22F232F342F4427585FC6
:1019C000F3CF469537952795A795F0405395C9F7DE
:1019D0007EF41F16BA0B620B730B840BBAF0915096
:1019E000A1F0FF0FBB1F661F771F881FC2F70EC035
:1019F000BA0F621F731F841F48F487957795679508
:101A0000B795F7959E3F08F0B3CF9395880F08F0F0
:101A10009927EE0F97958795089598D088F09F574E
:101A200090F0B92F9927B751A0F0D1F0660F771F2A
:101A3000881F991F1AF0BA95C9F712C0B13081F00A
:101A40009FD0B1E008959CC0672F782F8827B85F9A
:101A500039F0B93FCCF3869577956795B395D9F76B
:101A60003EF490958095709561957F4F8F4F9F4F75
:101A70000895E89409C097FB3EF490958095709581
:101A800061957F4F8F4F9F4F9923A9F0F92F96E9CA
:101A9000BB279395F695879577956795B795F1113F
:101AA000F8CFFAF4BB0F11F460FF1BC06F5F7F4FDC
:101AB0008F4F9F4F16C0882311F096E911C07723EE
:101AC00021F09EE8872F762F05C0662371F096E8F7
:101AD000862F70E060E02AF09A95660F771F881FC6
:101AE000DAF7880F9695879597F9089597F99F6784
:101AF00080E870E060E008959FEF80EC0895002496
:101B00000A941616170618060906089500240A9462
:101B100012161306140605060895092E0394000CE8
:101B200011F4882352F0BB0F40F4BF2B11F460FF77
:101B300004C06F5F7F4F8F4F9F4F089557FD9058A0
:101B4000440F551F59F05F3F71F04795880F97FB81
:101B5000991F61F09F3F79F087950895121613063B
:101B60001406551FF2CF4695F1DF08C0161617066A
:101B70001806991FF1CF869571056105089408959F
:101B8000E894BB2766277727CB0197F908950BD0F8
:101B9000C4CFB5DF28F0BADF18F0952309F0A6CF3F
:101BA000ABCF1124EECFCADFA0F3959FD1F3950FF1
:101BB00050E0551F629FF001729FBB27F00DB11DD1
:101BC000639FAA27F00DB11DAA1F649F6627B00D61
:101BD000A11D661F829F2227B00DA11D621F739F4A
:101BE000B00DA11D621F839FA00D611D221F749F58
:101BF0003327A00D611D231F849F600D211D822F9F
:101C0000762F6A2F11249F5750408AF0E1F08823E5
:101C10004AF0EE0FFF1FBB1F661F771F881F9150F2
:101C20005040A9F79E3F510570F060CFAACF5F3FAB
:101C3000ECF3983EDCF3869577956795B795F79525
:101C4000E7959F5FC1F7FE2B880F911D96958795AD
:101C500097F9089581E090E0F8940EC0262FF99945
:101C6000FECF1FBA92BD81BD20BD0FB6F894FA9A7F
:0C1C7000F99A0FBE01960895F894FFCF7A
:101C7C0000000000B302840258017002610260028D
:101C8C000000000053066001494E54454C2041545D
:101C9C004F4D00496E6B756261746F722054656CA8
:101CAC0075720052544320746572646574656B736D
:101CBC00692C2074617069206572726F72210052F8
:101CCC00544320546964616B207465726261636172
:101CDC00210053756875203A20004B656C656D6268
:0C1CEC00616270616E203A20003A000036
:00000001FF
